{
  "_format": "hh-sol-artifact-1",
  "contractName": "Ballot",
  "sourceName": "src/backend/contracts/Ballot.sol",
  "abi": [
    {
      "inputs": [
        {
          "internalType": "string[]",
          "name": "proposalNames",
          "type": "string[]"
        }
      ],
      "stateMutability": "nonpayable",
      "type": "constructor"
    },
    {
      "inputs": [],
      "name": "getProposals",
      "outputs": [
        {
          "components": [
            {
              "internalType": "string",
              "name": "name",
              "type": "string"
            },
            {
              "internalType": "uint256",
              "name": "voteCount",
              "type": "uint256"
            }
          ],
          "internalType": "struct Ballot.Proposal[]",
          "name": "",
          "type": "tuple[]"
        }
      ],
      "stateMutability": "view",
      "type": "function"
    },
    {
      "inputs": [
        {
          "internalType": "address",
          "name": "voter",
          "type": "address"
        }
      ],
      "name": "getVoter",
      "outputs": [
        {
          "components": [
            {
              "internalType": "bool",
              "name": "voted",
              "type": "bool"
            },
            {
              "internalType": "bool",
              "name": "canVote",
              "type": "bool"
            }
          ],
          "internalType": "struct Ballot.Voter",
          "name": "",
          "type": "tuple"
        }
      ],
      "stateMutability": "view",
      "type": "function"
    },
    {
      "inputs": [
        {
          "internalType": "address",
          "name": "voter",
          "type": "address"
        }
      ],
      "name": "giveRightToVote",
      "outputs": [],
      "stateMutability": "nonpayable",
      "type": "function"
    },
    {
      "inputs": [],
      "name": "manager",
      "outputs": [
        {
          "internalType": "address",
          "name": "",
          "type": "address"
        }
      ],
      "stateMutability": "view",
      "type": "function"
    },
    {
      "inputs": [
        {
          "internalType": "uint256",
          "name": "",
          "type": "uint256"
        }
      ],
      "name": "proposals",
      "outputs": [
        {
          "internalType": "string",
          "name": "name",
          "type": "string"
        },
        {
          "internalType": "uint256",
          "name": "voteCount",
          "type": "uint256"
        }
      ],
      "stateMutability": "view",
      "type": "function"
    },
    {
      "inputs": [
        {
          "internalType": "uint256",
          "name": "index",
          "type": "uint256"
        }
      ],
      "name": "vote",
      "outputs": [],
      "stateMutability": "nonpayable",
      "type": "function"
    },
    {
      "inputs": [
        {
          "internalType": "address",
          "name": "",
          "type": "address"
        }
      ],
      "name": "voters",
      "outputs": [
        {
          "internalType": "bool",
          "name": "voted",
          "type": "bool"
        },
        {
          "internalType": "bool",
          "name": "canVote",
          "type": "bool"
        }
      ],
      "stateMutability": "view",
      "type": "function"
    },
    {
      "inputs": [],
      "name": "winnerName",
      "outputs": [
        {
          "internalType": "string",
          "name": "winnerName_",
          "type": "string"
        }
      ],
      "stateMutability": "view",
      "type": "function"
    }
  ],
  "bytecode": "0x60806040523480156200001157600080fd5b50604051620018a9380380620018a983398181016040528101906200003791906200042e565b336000806101000a81548173ffffffffffffffffffffffffffffffffffffffff021916908373ffffffffffffffffffffffffffffffffffffffff16021790555060018060008060009054906101000a900473ffffffffffffffffffffffffffffffffffffffff1673ffffffffffffffffffffffffffffffffffffffff1673ffffffffffffffffffffffffffffffffffffffff16815260200190815260200160002060000160016101000a81548160ff02191690831515021790555060005b81518110156200019757600260405180604001604052808484815181106200012257620001216200047f565b5b60200260200101518152602001600081525090806001815401808255809150506001900390600052602060002090600202016000909190919091506000820151816000019081620001749190620006f9565b5060208201518160010155505080806200018e906200080f565b915050620000f5565b50506200085c565b6000604051905090565b600080fd5b600080fd5b600080fd5b6000601f19601f8301169050919050565b7f4e487b7100000000000000000000000000000000000000000000000000000000600052604160045260246000fd5b6200020382620001b8565b810181811067ffffffffffffffff82111715620002255762000224620001c9565b5b80604052505050565b60006200023a6200019f565b9050620002488282620001f8565b919050565b600067ffffffffffffffff8211156200026b576200026a620001c9565b5b602082029050602081019050919050565b600080fd5b600080fd5b600067ffffffffffffffff821115620002a457620002a3620001c9565b5b620002af82620001b8565b9050602081019050919050565b60005b83811015620002dc578082015181840152602081019050620002bf565b60008484015250505050565b6000620002ff620002f98462000286565b6200022e565b9050828152602081018484840111156200031e576200031d62000281565b5b6200032b848285620002bc565b509392505050565b600082601f8301126200034b576200034a620001b3565b5b81516200035d848260208601620002e8565b91505092915050565b60006200037d62000377846200024d565b6200022e565b90508083825260208201905060208402830185811115620003a357620003a26200027c565b5b835b81811015620003f157805167ffffffffffffffff811115620003cc57620003cb620001b3565b5b808601620003db898262000333565b85526020850194505050602081019050620003a5565b5050509392505050565b600082601f830112620004135762000412620001b3565b5b81516200042584826020860162000366565b91505092915050565b600060208284031215620004475762000446620001a9565b5b600082015167ffffffffffffffff811115620004685762000467620001ae565b5b6200047684828501620003fb565b91505092915050565b7f4e487b7100000000000000000000000000000000000000000000000000000000600052603260045260246000fd5b600081519050919050565b7f4e487b7100000000000000000000000000000000000000000000000000000000600052602260045260246000fd5b600060028204905060018216806200050157607f821691505b602082108103620005175762000516620004b9565b5b50919050565b60008190508160005260206000209050919050565b60006020601f8301049050919050565b600082821b905092915050565b600060088302620005817fffffffffffffffffffffffffffffffffffffffffffffffffffffffffffffffff8262000542565b6200058d868362000542565b95508019841693508086168417925050509392505050565b6000819050919050565b6000819050919050565b6000620005da620005d4620005ce84620005a5565b620005af565b620005a5565b9050919050565b6000819050919050565b620005f683620005b9565b6200060e6200060582620005e1565b8484546200054f565b825550505050565b600090565b6200062562000616565b62000632818484620005eb565b505050565b5b818110156200065a576200064e6000826200061b565b60018101905062000638565b5050565b601f821115620006a95762000673816200051d565b6200067e8462000532565b810160208510156200068e578190505b620006a66200069d8562000532565b83018262000637565b50505b505050565b600082821c905092915050565b6000620006ce60001984600802620006ae565b1980831691505092915050565b6000620006e98383620006bb565b9150826002028217905092915050565b6200070482620004ae565b67ffffffffffffffff81111562000720576200071f620001c9565b5b6200072c8254620004e8565b620007398282856200065e565b600060209050601f8311600181146200077157600084156200075c578287015190505b620007688582620006db565b865550620007d8565b601f19841662000781866200051d565b60005b82811015620007ab5784890151825560018201915060208501945060208101905062000784565b86831015620007cb5784890151620007c7601f891682620006bb565b8355505b6001600288020188555050505b505050505050565b7f4e487b7100000000000000000000000000000000000000000000000000000000600052601160045260246000fd5b60006200081c82620005a5565b91507fffffffffffffffffffffffffffffffffffffffffffffffffffffffffffffffff8203620008515762000850620007e0565b5b600182019050919050565b61103d806200086c6000396000f3fe608060405234801561001057600080fd5b50600436106100885760003560e01c80639e7b8d611161005b5780639e7b8d6114610116578063a3ec138d14610132578063d4f50f9814610163578063e2ba53f01461019357610088565b80630121b93f1461008d578063013cf08b146100a9578063481c6a75146100da57806362564c48146100f8575b600080fd5b6100a760048036038101906100a29190610941565b6101b1565b005b6100c360048036038101906100be9190610941565b6102f3565b6040516100d1929190610a0d565b60405180910390f35b6100e26103af565b6040516100ef9190610a7e565b60405180910390f35b6101006103d3565b60405161010d9190610bf1565b60405180910390f35b610130600480360381019061012b9190610c3f565b6104ce565b005b61014c60048036038101906101479190610c3f565b610649565b60405161015a929190610c87565b60405180910390f35b61017d60048036038101906101789190610c3f565b610687565b60405161018a9190610cee565b60405180910390f35b61019b610716565b6040516101a89190610d09565b60405180910390f35b6000600160003373ffffffffffffffffffffffffffffffffffffffff1673ffffffffffffffffffffffffffffffffffffffff16815260200190815260200160002090508060000160019054906101000a900460ff16610245576040517f08c379a000000000000000000000000000000000000000000000000000000000815260040161023c90610d77565b60405180910390fd5b8060000160009054906101000a900460ff1615610297576040517f08c379a000000000000000000000000000000000000000000000000000000000815260040161028e90610de3565b60405180910390fd5b60018160000160006101000a81548160ff021916908315150217905550600282815481106102c8576102c7610e03565b5b906000526020600020906002020160010160008154809291906102ea90610e61565b91905055505050565b6002818154811061030357600080fd5b906000526020600020906002020160009150905080600001805461032690610ed8565b80601f016020809104026020016040519081016040528092919081815260200182805461035290610ed8565b801561039f5780601f106103745761010080835404028352916020019161039f565b820191906000526020600020905b81548152906001019060200180831161038257829003601f168201915b5050505050908060010154905082565b60008054906101000a900473ffffffffffffffffffffffffffffffffffffffff1681565b60606002805480602002602001604051908101604052809291908181526020016000905b828210156104c5578382906000526020600020906002020160405180604001604052908160008201805461042a90610ed8565b80601f016020809104026020016040519081016040528092919081815260200182805461045690610ed8565b80156104a35780601f10610478576101008083540402835291602001916104a3565b820191906000526020600020905b81548152906001019060200180831161048657829003601f168201915b50505050508152602001600182015481525050815260200190600101906103f7565b50505050905090565b60008054906101000a900473ffffffffffffffffffffffffffffffffffffffff1673ffffffffffffffffffffffffffffffffffffffff163373ffffffffffffffffffffffffffffffffffffffff161461055c576040517f08c379a000000000000000000000000000000000000000000000000000000000815260040161055390610f7b565b60405180910390fd5b600160008273ffffffffffffffffffffffffffffffffffffffff1673ffffffffffffffffffffffffffffffffffffffff16815260200190815260200160002060000160009054906101000a900460ff16156105ec576040517f08c379a00000000000000000000000000000000000000000000000000000000081526004016105e390610fe7565b60405180910390fd5b60018060008373ffffffffffffffffffffffffffffffffffffffff1673ffffffffffffffffffffffffffffffffffffffff16815260200190815260200160002060000160016101000a81548160ff02191690831515021790555050565b60016020528060005260406000206000915090508060000160009054906101000a900460ff16908060000160019054906101000a900460ff16905082565b61068f6108e8565b600160008373ffffffffffffffffffffffffffffffffffffffff1673ffffffffffffffffffffffffffffffffffffffff1681526020019081526020016000206040518060400160405290816000820160009054906101000a900460ff161515151581526020016000820160019054906101000a900460ff1615151515815250509050919050565b606060008054906101000a900473ffffffffffffffffffffffffffffffffffffffff1673ffffffffffffffffffffffffffffffffffffffff163373ffffffffffffffffffffffffffffffffffffffff16146107a6576040517f08c379a000000000000000000000000000000000000000000000000000000000815260040161079d90610f7b565b60405180910390fd5b60026107b0610860565b815481106107c1576107c0610e03565b5b906000526020600020906002020160000180546107dd90610ed8565b80601f016020809104026020016040519081016040528092919081815260200182805461080990610ed8565b80156108565780601f1061082b57610100808354040283529160200191610856565b820191906000526020600020905b81548152906001019060200180831161083957829003601f168201915b5050505050905090565b6000806000905060005b6002805490508110156108e357816002828154811061088c5761088b610e03565b5b90600052602060002090600202016001015411156108d057600281815481106108b8576108b7610e03565b5b90600052602060002090600202016001015491508092505b80806108db90610e61565b91505061086a565b505090565b60405180604001604052806000151581526020016000151581525090565b600080fd5b6000819050919050565b61091e8161090b565b811461092957600080fd5b50565b60008135905061093b81610915565b92915050565b60006020828403121561095757610956610906565b5b60006109658482850161092c565b91505092915050565b600081519050919050565b600082825260208201905092915050565b60005b838110156109a857808201518184015260208101905061098d565b60008484015250505050565b6000601f19601f8301169050919050565b60006109d08261096e565b6109da8185610979565b93506109ea81856020860161098a565b6109f3816109b4565b840191505092915050565b610a078161090b565b82525050565b60006040820190508181036000830152610a2781856109c5565b9050610a3660208301846109fe565b9392505050565b600073ffffffffffffffffffffffffffffffffffffffff82169050919050565b6000610a6882610a3d565b9050919050565b610a7881610a5d565b82525050565b6000602082019050610a936000830184610a6f565b92915050565b600081519050919050565b600082825260208201905092915050565b6000819050602082019050919050565b600082825260208201905092915050565b6000610ae18261096e565b610aeb8185610ac5565b9350610afb81856020860161098a565b610b04816109b4565b840191505092915050565b610b188161090b565b82525050565b60006040830160008301518482036000860152610b3b8282610ad6565b9150506020830151610b506020860182610b0f565b508091505092915050565b6000610b678383610b1e565b905092915050565b6000602082019050919050565b6000610b8782610a99565b610b918185610aa4565b935083602082028501610ba385610ab5565b8060005b85811015610bdf5784840389528151610bc08582610b5b565b9450610bcb83610b6f565b925060208a01995050600181019050610ba7565b50829750879550505050505092915050565b60006020820190508181036000830152610c0b8184610b7c565b905092915050565b610c1c81610a5d565b8114610c2757600080fd5b50565b600081359050610c3981610c13565b92915050565b600060208284031215610c5557610c54610906565b5b6000610c6384828501610c2a565b91505092915050565b60008115159050919050565b610c8181610c6c565b82525050565b6000604082019050610c9c6000830185610c78565b610ca96020830184610c78565b9392505050565b610cb981610c6c565b82525050565b604082016000820151610cd56000850182610cb0565b506020820151610ce86020850182610cb0565b50505050565b6000604082019050610d036000830184610cbf565b92915050565b60006020820190508181036000830152610d2381846109c5565b905092915050565b7f486173206e6f20726967687420746f20766f7465000000000000000000000000600082015250565b6000610d61601483610979565b9150610d6c82610d2b565b602082019050919050565b60006020820190508181036000830152610d9081610d54565b9050919050565b7f416c726561647920566f7465642e000000000000000000000000000000000000600082015250565b6000610dcd600e83610979565b9150610dd882610d97565b602082019050919050565b60006020820190508181036000830152610dfc81610dc0565b9050919050565b7f4e487b7100000000000000000000000000000000000000000000000000000000600052603260045260246000fd5b7f4e487b7100000000000000000000000000000000000000000000000000000000600052601160045260246000fd5b6000610e6c8261090b565b91507fffffffffffffffffffffffffffffffffffffffffffffffffffffffffffffffff8203610e9e57610e9d610e32565b5b600182019050919050565b7f4e487b7100000000000000000000000000000000000000000000000000000000600052602260045260246000fd5b60006002820490506001821680610ef057607f821691505b602082108103610f0357610f02610ea9565b5b50919050565b7f4f6e6c79206d616e616765722063616e207061737320746869732066756e637460008201527f696f6e0000000000000000000000000000000000000000000000000000000000602082015250565b6000610f65602383610979565b9150610f7082610f09565b604082019050919050565b60006020820190508181036000830152610f9481610f58565b9050919050565b7f54686520766f74657220616c726561647920766f746564000000000000000000600082015250565b6000610fd1601783610979565b9150610fdc82610f9b565b602082019050919050565b6000602082019050818103600083015261100081610fc4565b905091905056fea2646970667358221220c8361965dc4f54a47f4f5660aed81217ef6c584442bdfa0dc9cc6d31cecf67ab64736f6c63430008110033",
  "linkReferences": {},
  "deployedLinkReferences": {}
}